:020000040800F2
:1000000000000820359E0008A1670008AF670008BF
:10001000B5670008BB670008C16700080000000062
:10002000000000000000000000000000C76700089A
:10003000D567000800000000E3670008F1670008CA
:10004000859E0008859E0008859E0008859E000804
:10005000859E000801680008859E0008859E0008AE
:10006000859E0008859E0008859E0008859E0008E4
:10007000859E0008859E0008859E0008859E0008D4
:10008000859E0008859E0008859E0008116800086E
:1000900025680008396800084D680008859E00083A
:1000A000859E0008859E0008859E0008859E0008A4
:1000B000859E0008859E0008859E0008859E000894
:1000C000859E0008859E0008859E0008859E000884
:1000D000859E000861680008859E0008859E0008CE
:1000E000859E0008859E0008859E0008859E000864
:1000F000859E0008859E0008859E0008859E000854
:10010000859E000875680008859E0008859E000889
:10011000859E0008859E0008859E0008859E000833
:10012000859E0008859E0008859E0008859E000823
:10013000859E0008859E0008859E0008859E000813
:10014000859E0008859E0008859E0008859E000803
:10015000859E0008859E0008859E0008859E0008F3
:10016000859E0008859E0008859E0008859E0008E3
:10017000859E0008859E0008859E000800000000FE
:10018000859E0008859E0008859E0008859E0008C3
:10019000859E0008859E0008859E0008859E0008B3
:1001A000859E0008859E0008859E0008859E0008A3
:1001B000859E0008859E0008859E0008859E000893
:1001C000859E0008859E000800000000859E0008AE
:1001D000859E0008859E0008859E0008859E000873
:1001E000859E0008859E0008859E0008859E000863
:0801F000859E0008859E0008B1
:1002000010B5054C237833B9044B13B10448AFF350
:1002100000800123237010BD70000020000000004A
:1002200028A7000808B5034B1BB103490348AFF3E7
:10023000008008BD000000007400002028A700080E
:1002400001F0FF01102A2BDB10F0070F08D010F887
:10025000013B013A8B422DD010F0070F42B3F6D18B
:10026000F0B441EA012141EA014122F007047FF0A4
:1002700000070023F0E80256083C85EA010586EAFB
:10028000010685FA47F5A3FA87F586FA47F6A5FA37
:1002900087F68EB9EED1F0BC01F0FF0102F0070243
:1002A00032B110F8013B013A83EA010313B1F8D1EE
:1002B0000020704701387047002D06BF35460338CF
:1002C000073815F0010F07D1013015F4807F02BF08
:1002D000013015F4C03F0130F0BC0138704700BF59
:1002E00053B94AB9002908BF00281CBF4FF0FF319D
:1002F0004FF0FF3000F07AB9ADF1080C6DE904CE93
:1003000000F006F8DDF804E0DDE9022304B07047F0
:100310002DE9F0478C460D460446089E002B51D12E
:100320008A4217466DD9B2FA82FEBEF1000F0BD099
:10033000CEF1200C01FA0EF520FA0CFC02FA0EF7B1
:100340004CEA050C00FA0EF44FEA174A250CBCFBE8
:10035000FAF81FFA87F90AFB18CC45EA0C4508FBA6
:1003600009F3AB420AD9ED1908F1FF3280F023817D
:10037000AB4240F22081A8F102083D44ED1AA4B23C
:10038000B5FBFAF00AFB105544EA054400FB09F9F5
:10039000A14509D9E41900F1FF3380F00A81A14594
:1003A00040F2078102383C44A4EB090440EA0840CB
:1003B0000021002E61D024FA0EF400233460736013
:1003C000BDE8F0878B4207D9002E54D0002186E883
:1003D00021000846BDE8F087B3FA83F1002940F018
:1003E0008E80AB4202D3824200F2FA80841A65EB1F
:1003F00003050120AC46002E3FD086E81010BDE872
:10040000F08712B90127B7FBF2F7B7FA87FEBEF102
:10041000000F34D1EB1B3A0C1FFA87FC0121B3FB10
:10042000F2F8250C02FB183345EA03450CFB08F3F0
:10043000AB4207D9ED1908F1FF3002D2AB4200F20E
:10044000D1808046ED1AA3B2B5FBF2F002FB105545
:1004500043EA05440CFB00FCA44507D9E41900F16C
:10046000FF3302D2A44500F2B8801846A4EB0C0476
:1004700040EA08409DE731463046BDE8F087CEF1BE
:10048000200405FA0EF307FA0EF720FA04F83A0CE6
:1004900025FA04F448EA0308B4FBF2F14FEA1845E0
:1004A00002FB11441FFA87FC45EA044501FB0CF3EB
:1004B000AB4200FA0EF409D9ED1901F1FF3080F0DA
:1004C0008A80AB4240F2878002393D44EB1A1FFA22
:1004D00088F5B3FBF2F002FB103345EA034500FB5D
:1004E0000CF3AB4207D9ED1900F1FF386FD2AB42E4
:1004F0006DD902383D44EB1A40EA01418FE7C1F162
:10050000200722FA07F88B4005FA01F448EA0303B2
:1005100020FA07FE4FEA134CFD404EEA040EB5FBED
:10052000FCF94FEA1E440CFB19551FFA83F844EA04
:10053000054509FB08F4AC4202FA01F200FA01FA9F
:1005400008D9ED1809F1FF3043D2AC4241D9A9F1E5
:1005500002091D442D1B1FFA8EFEB5FBFCF00CFB9F
:1005600010554EEA054400FB08F8A04507D9E418E9
:1005700000F1FF3529D2A04527D902381C4440EAB2
:100580000940A4EB0804A0FB02894C45C6464D4631
:1005900015D312D056B1BAEB0E0364EB050404FA7E
:1005A00007F7CB401F43CC40376074600021BDE8A3
:1005B000F0871846F8E69046E0E6C245EAD2B8EB86
:1005C000020E69EB03050138E4E72846D7E7404609
:1005D00091E78146BEE7014678E702383C4445E7AB
:1005E000084608E7A8F102083D442BE7704700BF22
:1005F00080B500AF032000F0C3FC002000F006F837
:1006000006F0AAF80023184680BD000080B582B02D
:1006100000AF7860124B1A68124B1B7819464FF4E2
:100620007A73B3FBF1F3B2FBF3F3184600F0EBFC83
:100630000346002B01D001230EE07B680F2B0AD864
:10064000002279684FF0FF3000F0A5FC064A7B6875
:100650001360002300E0012318460837BD4680BD23
:1006600008000020040000200000002080B400AF3B
:10067000064B1B781A46064B1B681344044A13604A
:1006800000BFBD465DF8047B704700BF040000203A
:10069000C404002080B400AF034B1B681846BD465D
:1006A0005DF8047B704700BFC404002080B584B0AF
:1006B00000AF7860FFF7EEFFB8607B68FB60FB6817
:1006C000B3F1FF3F05D0094B1B781A46FB68134472
:1006D000FB6000BFFFF7DEFF0246BB68D21AFB6873
:1006E0009A42F7D300BF1037BD4680BD04000020FA
:1006F00080B487B000AFF860B9607A603B60FB6897
:1007000093F82030FB75FB7D012B03D0FB7D022B82
:1007100040F0F480BB68002B0ED1FB681B68DB68DF
:1007200003F00303002B16D1FB685B6A43F400124D
:10073000FB685A620123E8E0FB681B681B6903F051
:100740000303002B07D1FB685B6A43F40012FB68CC
:100750005A620123D9E0FB681A68BB681B331B018E
:1007600013441B6803F004027B689A607B689B68F3
:10077000002B0CD1FB681A68BB681B331B011344A8
:100780001B685B0DC3F30A027B681A600BE0FB6811
:100790001A68BB681B331B0113441B68DB0823F07A
:1007A00060427B685A60FB681A68BB681B331B0198
:1007B00013441B685B0803F001027B68DA60FB6886
:1007C0001A68BB681B331B01134404331B6803F016
:1007D0000F027B681A61FB681A68BB681B331B0138
:1007E000134404331B681B0ADAB27B689A61FB6806
:1007F0001A68BB681B331B01134404331B681B0CB2
:100800009AB27B685A61FB681A68BB681B01134483
:1008100003F5DC731B68DAB23B681A703B6801337E
:10082000FA681168BA6812010A4402F5DC721268AB
:10083000120AD2B21A703B680233FA681168BA68B9
:1008400012010A4402F5DC721268120CD2B21A705C
:100850003B680333FA681168BA6812010A4402F56A
:10086000DC721268120ED2B21A703B680433FA6856
:100870001168BA6812010A4402F5DE721268D2B237
:100880001A703B680533FA681168BA6812010A44A5
:1008900002F5DE721268120AD2B21A703B68063391
:1008A000FA681168BA6812010A4402F5DE72126829
:1008B000120CD2B21A703B680733FA681168BA6832
:1008C00012010A4402F5DE721268120ED2B21A70D8
:1008D000BB68002B08D1FB681B68FA681268D268F5
:1008E00042F02002DA6007E0FB681B68FA681268D1
:1008F000126942F020021A61002306E0FB685B6A7D
:1009000043F48022FB685A62012318461C37BD4617
:100910005DF8047B704780B58AB000AF7860002333
:100920007B627B681B685B693B627B681B685B68FA
:10093000FB617B681B689B68BB617B681B68DB682D
:100940007B617B681B681B693B617B681B689B69DB
:10095000FB603B6A03F00103002B7CD0BB6903F012
:100960000103002B23D07B681B6801229A60BB69BE
:1009700003F00203002B03D0786800F07DF916E045
:10098000BB6903F00403002B04D07B6A43F40063CB
:100990007B620CE0BB6903F00803002B04D07B6A88
:1009A00043F480537B6202E0786800F083F9BB690E
:1009B00003F48073002B24D07B681B684FF4807293
:1009C0009A60BB6903F40073002B03D0786800F0D1
:1009D0005DF916E0BB6903F48063002B04D07B6AE9
:1009E00043F400537B620CE0BB6903F40063002B0B
:1009F00004D07B6A43F480437B6202E0786800F0B5
:100A000063F9BB6903F48033002B24D07B681B6837
:100A10004FF480329A60BB6903F40033002B03D09B
:100A2000786800F03DF916E0BB6903F48023002BE1
:100A300004D07B6A43F400437B620CE0BB6903F49F
:100A40000023002B04D07B6A43F480337B6202E0F6
:100A5000786800F043F93B6A03F00803002B0CD0E0
:100A60007B6903F01003002B07D07B6A43F400730B
:100A70007B627B681B681022DA603B6A03F0040328
:100A8000002B0BD07B6903F00803002B06D07B689A
:100A90001B680822DA60786800F02AF93B6A03F0E4
:100AA0000203002B09D07B681B68DB6803F003039B
:100AB000002B02D0786806F0A3F83B6A03F04003ED
:100AC000002B0CD03B6903F01003002B07D07B6A8E
:100AD00043F480637B627B681B6810221A613B6A67
:100AE00003F02003002B0BD03B6903F00803002B1D
:100AF00006D07B681B6808221A61786800F002F94A
:100B00003B6A03F01003002B09D07B681B681B694C
:100B100003F00303002B02D0786806F0A3F83B6AC9
:100B200003F40033002B0BD0FB6903F01003002B00
:100B300006D07B681B6810225A60786800F0ECF8D9
:100B40003B6A03F48033002B0BD0FB6903F00803EE
:100B5000002B06D07B681B6808225A60786800F07A
:100B6000E5F83B6A03F40043002B75D0FB6903F002
:100B70000403002B6CD03B6A03F48073002B08D075
:100B8000FB6803F00103002B03D07B6A43F00103F1
:100B90007B623B6A03F40073002B08D0FB6803F010
:100BA0000203002B03D07B6A43F002037B623B6AA3
:100BB00003F48063002B08D0FB6803F00403002BD0
:100BC00003D07B6A43F004037B623B6A03F4006357
:100BD000002B3DD0FB6803F07003002B38D0FB687E
:100BE00003F07003302B17D0302B04D8102B09D012
:100BF000202B0CD024E0502B18D0602B1BD0402B86
:100C00000FD01DE07B6A43F008037B6218E07B6A2B
:100C100043F010037B6213E07B6A43F020037B62A6
:100C20000EE07B6A43F040037B6209E07B6A43F09D
:100C300080037B6204E07B6A43F480737B6200BFC5
:100C40007B681B687A681268926922F070029A6168
:100C50007B681B6804225A607B6A002B08D07B6883
:100C60005A6A7B6A1A437B685A62786806F02CF8E5
:100C700000BF2837BD4680BD80B483B000AF786028
:100C800000BF0C37BD465DF8047B704780B483B06D
:100C900000AF786000BF0C37BD465DF8047B70473D
:100CA00080B483B000AF786000BF0C37BD465DF8FC
:100CB000047B704780B483B000AF786000BF0C370E
:100CC000BD465DF8047B704780B483B000AF7860A8
:100CD00000BF0C37BD465DF8047B704780B483B01D
:100CE00000AF786000BF0C37BD465DF8047B7047ED
:100CF00080B483B000AF786000BF0C37BD465DF8AC
:100D0000047B704780B483B000AF786000BF0C37BD
:100D1000BD465DF8047B704780B483B000AF786057
:100D200000BF0C37BD465DF8047B704780B483B0CC
:100D300000AF786000BF0C37BD465DF8047B70479C
:100D400080B483B000AF78607B685B6A18460C376C
:100D5000BD465DF8047B704780B485B000AF786015
:100D60000023FB737B6893F82030BB73BB7B012BA4
:100D700002D0BB7B022B03D17B6800225A6207E0C2
:100D80007B685B6A43F480227B685A620123FB73B1
:100D9000FB7B18461437BD465DF8047B70470000A6
:100DA00080B485B000AF78607B6803F00703FB6018
:100DB0000B4BDB68BB60BA684FF6FF031340BB60A8
:100DC000FB681A02BB681A43064B1343BB60044A14
:100DD000BB68D36000BF1437BD465DF8047B704725
:100DE00000ED00E00000FA0580B400AF044BDB68C2
:100DF0001B0A03F007031846BD465DF8047B7047E5
:100E000000ED00E080B483B000AF0346FB7197F9BA
:100E10000730002B0BDB094997F907305B09FA799A
:100E200002F01F02012000FA02F241F8232000BF65
:100E30000C37BD465DF8047B704700BF00E100E061
:100E400080B483B000AF0346FB7197F90730002BE5
:100E500010DB0B4997F907305B09FA7902F01F02A2
:100E6000012000FA02F2203341F82320BFF34F8F14
:100E7000BFF36F8F00BF0C37BD465DF8047B704732
:100E800000E100E080B483B000AF03463960FB713D
:100E900097F90730002B0ADB0D4997F907303A68BC
:100EA000D2B21201D2B20B4483F800230AE00949FE
:100EB000FB7903F00F03043B3A68D2B21201D2B2BD
:100EC0000B441A7600BF0C37BD465DF8047B7047B3
:100ED00000E100E000ED00E080B489B000AFF86010
:100EE000B9607A60FB6803F00703FB61FB69C3F13B
:100EF0000703042B28BF0423BB61FB690433062BC3
:100F000002D9FB69033B00E000237B610122BB693E
:100F100002FA03F35A1EBB681A407B699A4001210A
:100F20007B6901FA03F3591E7B680B401343184693
:100F30002437BD465DF8047B7047000080B582B061
:100F400000AF78607B68013BB3F1807F01D3012360
:100F50000FE00A4A7B68013B53600F214FF0FF30DE
:100F6000FFF790FF054B00229A60044B07221A609E
:100F7000002318460837BD4680BD00BF10E000E0E2
:100F800080B582B000AF78607868FFF709FF00BFD6
:100F90000837BD4680BD80B586B000AF0346B96056
:100FA0007A60FB7300237B61FFF71EFF78617A682C
:100FB000B9687869FFF790FF024697F90F3011463C
:100FC0001846FFF75FFF00BF1837BD4680BD80B5EC
:100FD00082B000AF0346FB7197F907301846FFF760
:100FE00011FF00BF0837BD4680BD80B582B000AF9D
:100FF0000346FB7197F907301846FFF721FF00BF42
:101000000837BD4680BD80B582B000AF7860786893
:10101000FFF794FF034618460837BD4680BD80B5EC
:1010200000AF05F059F800BF80BD80B584B000AFB7
:1010300078607B689B6DFB60FFF72CFBB8607B687A
:1010400093F83530DBB2022B08D07B6880225A65DA
:101050007B68002283F83420012352E07B681B6800
:101060007A681268126822F016021A607B681B68A0
:101070007A681268526922F080025A617B681B6CA0
:10108000002B03D17B689B6C002B07D07B681B680F
:101090007A681268126822F008021A607B681B687E
:1010A0007A681268126822F001021A6013E0FFF7F2
:1010B000F1FA0246BB68D31A052B0CD97B682022B3
:1010C0005A657B68002283F834207B68032283F80A
:1010D0003520032315E07B681B681B6803F00103C0
:1010E000002BE4D17B68DB6D3F229A40FB689A605D
:1010F0007B68002283F834207B68012283F8352046
:10110000002318461037BD4680BD80B483B000AFC1
:1011100078607B6893F83530DBB2022B04D07B68B3
:1011200080225A6501230CE07B68052283F8352074
:101130007B681B687A681268126822F001021A60E4
:10114000002318460C37BD465DF8047B704780B419
:1011500083B000AF78607B685B6D18460C37BD4686
:101160005DF8047B7047000080B489B000AF786000
:1011700039600023FB6100237B6100233B61002376
:10118000BB610023FB6175E10122FB6902FA03F3F5
:101190007B613B681A687B6913403B613A697B69F4
:1011A0009A4240F064813B685B68022B03D03B6845
:1011B0005B68122B23D1FB69DA087B68083253F88D
:1011C0002230BB61FB6903F007039B000F2202FA88
:1011D00003F3DB43BA691340BB613B681A69FB69DF
:1011E00003F007039B0002FA03F3BA691343BB61E0
:1011F000FB69DA087B680832B96943F822107B681A
:101200001B68BB61FB695B00032202FA03F3DB434B
:10121000BA691340BB613B685B6803F00302FB697A
:101220005B0002FA03F3BA691343BB617B68BA69D6
:101230001A603B685B68012B0BD03B685B68022B34
:1012400007D03B685B68112B03D03B685B68122BAF
:1012500030D17B689B68BB61FB695B00032202FAAB
:1012600003F3DB43BA691340BB613B68DA68FB698F
:101270005B0002FA03F3BA691343BB617B68BA6986
:101280009A607B685B68BB610122FB6902FA03F329
:10129000DB43BA691340BB613B685B681B0903F021
:1012A0000102FB6902FA03F3BA691343BB617B686D
:1012B000BA695A607B68DB68BB61FB695B0003222B
:1012C00002FA03F3DB43BA691340BB613B689A68D7
:1012D000FB695B0002FA03F3BA691343BB617B68E5
:1012E000BA69DA603B685B6803F08053002B00F05A
:1012F000BE80654A644B5B6C43F480435364624B2D
:101300005B6C03F48043FB60FB68604AFB699B08ED
:10131000023352F82330BB61FB6903F003039B00E7
:101320000F2202FA03F3DB43BA691340BB617B6807
:10133000574A934237D07B68564A934231D07B68F4
:10134000554A93422BD07B68544A934225D07B6800
:10135000534A93421FD07B68524A934219D07B680C
:10136000514A934213D07B68504A93420DD07B6818
:101370004F4A934207D07B684E4A934201D10923DA
:1013800012E00A2310E008230EE007230CE00623F6
:101390000AE0052308E0042306E0032304E0022317
:1013A00002E0012300E00023FA6902F00302920048
:1013B0009340BA691343BB613449FB699B0802330C
:1013C000BA6941F823203C4B1B68BB613B69DB4396
:1013D000BA691340BB613B685B6803F48033002B40
:1013E00003D0BA693B691343BB61334ABB691360DD
:1013F000314B5B68BB613B69DB43BA691340BB613E
:101400003B685B6803F40033002B03D0BA693B6987
:101410001343BB61284ABB695360274B9B68BB6180
:101420003B69DB43BA691340BB613B685B6803F40B
:101430008013002B03D0BA693B691343BB611E4A7A
:10144000BB6993601C4BDB68BB613B69DB43BA69DA
:101450001340BB613B685B6803F40013002B03D0AF
:10146000BA693B691343BB61134ABB69D360FB692B
:101470000133FB61FB690F2B7FF686AE00BF24377B
:10148000BD465DF8047B70470038024000380140DB
:10149000000002400004024000080240000C02402C
:1014A000001002400014024000180240001C0240DC
:1014B0000020024000240240003C014080B487B07C
:1014C00000AF7860396000233B610023FB6000239C
:1014D000BB6000237B61DAE001227B6902FA03F33F
:1014E0003B613A683B691340FB60FA683B699A428A
:1014F00040F0CA806B4A7B699B08023352F8233064
:10150000BB607B6903F003039B000F2202FA03F325
:10151000BA681340BB607B68634A934237D07B68EC
:10152000624A934231D07B68614A93422BD07B68F8
:10153000604A934225D07B685F4A93421FD07B6804
:101540005E4A934219D07B685D4A934213D07B6810
:101550005C4A93420DD07B685B4A934207D07B681C
:101560005A4A934201D1092312E00A2310E00823CA
:101570000EE007230CE006230AE0052308E004231D
:1015800006E0032304E0022302E0012300E000233D
:101590007A6902F00302920003FA02F2BB689A42EF
:1015A00032D17B6903F003039B000F2202FA03F39D
:1015B000BB603C487B699B083A497A6992080232D1
:1015C00051F82210BA68D2430A40023340F823206F
:1015D0003F493F4B1A68FB68DB4313400B603C49B3
:1015E0003B4B5A68FB68DB4313404B603849384B30
:1015F0009A68FB68DB4313408B603549344BDA68EB
:10160000FB68DB431340CB607B681A687B695B0037
:10161000032101FA03F3DB431A407B681A607B69FC
:10162000DA087B69D9087B68083153F821107B6997
:1016300003F007039B000F2000FA03F3DB4319407C
:101640007B68083243F822107B689A687B695B00EC
:10165000032101FA03F3DB431A407B689A607B683D
:101660005A6801217B6901FA03F3DB431A407B6866
:101670005A607B68DA687B695B00032101FA03F337
:10168000DB431A407B68DA607B6901337B617B69ED
:101690000F2B7FF621AF00BF1C37BD465DF8047BE2
:1016A000704700BF003801400000024000040240C3
:1016B00000080240000C02400010024000140240EA
:1016C00000180240001C024000200240002402409A
:1016D000003C014080B483B000AF78600B467B8053
:1016E00013467B707B78002B03D07A887B689A61E5
:1016F00003E07B881A047B689A6100BF0C37BD4603
:101700005DF8047B7047000080B400AF054A054BCC
:101710001B6843F48073136000BFBD465DF8047B13
:10172000704700BF0070004080B400AF054A054B11
:101730001B6823F48073136000BFBD465DF8047B13
:10174000704700BF0070004080B582B000AF00233A
:101750007B60234A224B1B6C43F080531364204B65
:101760001B6C03F080533B603B681E4A1D4B1B689B
:1017700043F480331360FEF78DFF786009E0FEF7D5
:1017800089FF02467B68D31AB3F57A7F01D9032318
:1017900022E0144B5B6803F48033B3F5803FEED155
:1017A000104A104B1B6843F400331360FEF772FFBE
:1017B000786009E0FEF76EFF02467B68D31AB3F546
:1017C0007A7F01D9032307E0064B5B6803F40033FB
:1017D000B3F5003FEED1002318460837BD4680BD63
:1017E000003802400070004080B586B000AF7860DD
:1017F0000023FB757B68002B01D101235EE27B682F
:101800001B6803F00103002B00F08780964B9B6858
:1018100003F00C03042B0CD0934B9B6803F00C03D8
:10182000082B12D1904B5B6803F48003B3F5800F53
:101830000BD18D4B1B6803F40033002B6CD07B68FD
:101840005B68002B68D1012338E27B685B68B3F5E5
:10185000803F06D1844A844B1B6843F48033136075
:101860002EE07B685B68002B0CD17F4A7E4B1B68A7
:1018700023F4803313607C4A7B4B1B6823F4802362
:1018800013601DE07B685B68B3F5A02F0CD1764A2E
:10189000754B1B6843F480231360734A724B1B68BB
:1018A00043F4803313600BE06F4A6F4B1B6823F4E3
:1018B000803313606C4A6C4B1B6823F480231360E5
:1018C0007B685B68002B13D0FEF7E4FE386108E00C
:1018D000FEF7E0FE02463B69D31A642B01D90323CD
:1018E000ECE1614B1B6803F40033002BF0D014E0F3
:1018F000FEF7D0FE386108E0FEF7CCFE02463B69F9
:10190000D31A642B01D90323D8E1574B1B6803F486
:101910000033002BF0D100E000BF7B681B6803F0B0
:101920000203002B69D0504B9B6803F00C03002B83
:101930000BD04D4B9B6803F00C03082B1CD14A4B7A
:101940005B6803F48003002B16D1474B1B6803F040
:101950000203002B05D07B68DB68012B01D001233B
:10196000ACE14149404B1B6823F0F8027B681B69DE
:10197000DB0013430B6040E07B68DB68002B23D067
:10198000394A394B1B6843F001031360FEF782FEAE
:10199000386108E0FEF77EFE02463B69D31A022B4F
:1019A00001D903238AE1304B1B6803F00203002BAB
:1019B000F0D02D492C4B1B6823F0F8027B681B6983
:1019C000DB0013430B6018E0274A274B1B6823F00A
:1019D00001031360FEF75EFE386108E0FEF75AFE71
:1019E00002463B69D31A022B01D9032366E11E4B41
:1019F0001B6803F00203002BF0D17B681B6803F027
:101A00000803002B38D07B685B69002B19D0164A7D
:101A1000154B5B6F43F001035367FEF73BFE3861E4
:101A200008E0FEF737FE02463B69D31A022B01D9C4
:101A3000032343E10C4B5B6F03F00203002BF0D058
:101A40001AE0094A084B5B6F23F001035367FEF766
:101A500021FE38610AE0FEF71DFE02463B69D31AFB
:101A6000022B03D9032329E100380240954B5B6F19
:101A700003F00203002BEED17B681B6803F0040324
:101A8000002B00F0A4808F4B1B6C03F08053002BC5
:101A90000DD18C4A8B4B1B6C43F080531364894BE4
:101AA0001B6C03F08053FB60FB680123FB75864BC6
:101AB0001B6803F48073002B18D1834A824B1B6888
:101AC00043F480731360FEF7E5FD386108E0FEF72C
:101AD000E1FD02463B69D31A642B01D90323EDE0F3
:101AE000794B1B6803F48073002BF0D07B689B68F4
:101AF000012B06D1734A734B1B6F43F0010313672D
:101B00002DE07B689B68002B0CD16E4A6D4B1B6FE0
:101B100023F0010313676B4A6A4B1B6F23F0040326
:101B200013671CE07B689B68052B0CD1654A654BED
:101B30001B6F43F004031367624A624B1B6F43F051
:101B4000010313670BE05F4A5E4B1B6F23F0010339
:101B500013675C4A5B4B1B6F23F0040313677B68BE
:101B60009B68002B15D0FEF795FD38610AE0FEF763
:101B700091FD02463B69D31A41F28832934201D962
:101B800003239BE04F4B1B6F03F00203002BEED0AF
:101B900014E0FEF77FFD38610AE0FEF77BFD0246A8
:101BA0003B69D31A41F28832934201D9032385E07D
:101BB000444B1B6F03F00203002BEED1FB7D012B86
:101BC00005D1404A3F4B1B6C23F0805313647B6864
:101BD0009B69002B71D03B4B9B6803F00C03082BD7
:101BE00069D07B689B69022B4BD1364A354B1B6809
:101BF00023F080731360FEF74DFD386108E0FEF7B7
:101C000049FD02463B69D31A022B01D9032355E053
:101C10002C4B1B6803F00073002BF0D129497B6823
:101C2000DA697B681B6A1A437B685B6A9B011A430B
:101C30007B689B6A5B08013B1B041A437B68DB6A79
:101C40001B061A437B681B6B1B0713434B601D4A23
:101C50001C4B1B6843F080731360FEF71BFD38615B
:101C600008E0FEF717FD02463B69D31A022B01D9A3
:101C7000032323E0134B1B6803F00073002BF0D009
:101C80001BE0104A0F4B1B6823F080731360FEF7B4
:101C900001FD386108E0FEF7FDFC02463B69D31AFE
:101CA000022B01D9032309E0064B1B6803F00073E4
:101CB000002BF0D101E0012300E000231846183783
:101CC000BD4680BD003802400070004080B584B041
:101CD00000AF786039600023FB607B68002B01D186
:101CE0000123CEE0694B1B6803F00F023B689A4268
:101CF00010D26649654B1B6823F00F023B68134303
:101D00000B60624B1B6803F00F023B689A4201D0E4
:101D10000123B6E07B681B6803F00203002B20D090
:101D20007B681B6803F00403002B05D0584A584B0E
:101D30009B6843F4E05393607B681B6803F00803DF
:101D4000002B05D0524A524B9B6843F4604393608A
:101D50004F494F4B9B6823F0F0027B689B6813430D
:101D60008B607B681B6803F00103002B40D07B680D
:101D70005B68012B07D1464B1B6803F40033002B33
:101D800015D101237DE07B685B68022B07D1404BB6
:101D90001B6803F00073002B09D1012371E03C4B59
:101DA0001B6803F00203002B01D1012369E03849CD
:101DB000374B9B6823F003027B685B6813438B609F
:101DC000FEF768FCF8600AE0FEF764FC0246FB6878
:101DD000D31A41F28832934201D9032351E02C4BAC
:101DE0009B6803F00C027B685B689B009A42EBD116
:101DF000264B1B6803F00F023B689A4210D9234917
:101E0000224B1B6823F00F023B6813430B601F4BF0
:101E10001B6803F00F023B689A4201D0012330E0B7
:101E20007B681B6803F00403002B08D01849184B8B
:101E30009B6823F4E0527B68DB6813438B607B680C
:101E40001B6803F00803002B09D01149104B9B6855
:101E500023F460427B681B69DB0013438B6000F056
:101E60001DF801460A4B9B681B0903F00F03094A42
:101E7000D35C21FA03F3084A13600020FEF7C6FB87
:101E8000002318461037BD4680BD00BF003C02400D
:101E9000003802400CAA0008080000202DE9F04F8D
:101EA0008FB000AF0023FB6200237B630023BB6283
:101EB00000233B63624B9B6803F00C03042B07D0A9
:101EC000082B08D0002B40F0B2805E4B3B63B1E0A2
:101ED0005C4B3B63AEE05A4B5B6803F03F03FB6235
:101EE000574B5B6803F48003002B4ED0544B5B6868
:101EF0009B094FF0000440F2FF114FF0000201EA8D
:101F0000030102EA04020B46144660017862786A13
:101F100040EAD36078625B013B62D7E908345B1A20
:101F200064EB02044FEA841949EA93694FEA831883
:101F3000B8EB030869EB04094FEAC903FB61FB69CD
:101F400043EA5873FB614FEAC803BB61D7E90689CE
:101F500018EB010849EB02094FEA89237B617B6991
:101F600043EA98537B614FEA88233B61D7E90489B0
:101F700040464946FB6A4FF000041A462346FEF7E6
:101F8000AFF903460C467B6343E02D4B5B689B092E
:101F90004FF0000440F2FF114FF0000201EA03018C
:101FA00002EA04020B4614466001F860F86840EA51
:101FB000D360F8605B01BB60D7E902345B1A64EB65
:101FC0000204A60146EA93669D01ED1A66EB04063B
:101FD000F3007B607B6843EA55737B60EB003B60FA
:101FE00097E860006D1846EB02064FEA862B4BEA35
:101FF000955B4FEA852A55465E4628463146FB6A80
:102000004FF000041A462346FEF76AF903460C46D1
:102010007B630B4B5B681B0C03F0030301335B001A
:10202000BB627A6BBB6AB2FBF3F33B6302E0054B26
:102030003B6300BF3B6B18463C37BD46BDE8F08FA5
:10204000003802400024F40080B400AF034B1B684A
:102050001846BD465DF8047B704700BF08000020AD
:1020600080B500AFFFF7F0FF0146054B9B689B0A68
:1020700003F00703034AD35C21FA03F3184680BD3B
:10208000003802401CAA000880B500AFFFF7DCFF53
:102090000146054B9B685B0B03F00703034AD35CC7
:1020A00021FA03F3184680BD003802401CAA00083C
:1020B00080B588B000AF786000237B6100233B616E
:1020C0000023FB600023FB610023BB617B681B686E
:1020D00003F00103002B12D0694A694B9B6823F47B
:1020E000000393606649664B9A687B685B6B134399
:1020F0008B607B685B6B002B01D10123FB617B68EC
:102100001B6803F40023002B17D05D495C4BD3F808
:102110008C3023F440127B68DB6B1343C1F88C30A6
:102120007B68DB6BB3F5801F01D10123FB617B680A
:10213000DB6B002B01D10123BB617B681B6803F4BF
:102140008013002B17D04E494D4BD3F88C3023F41D
:1021500040027B681B6C1343C1F88C307B681B6C9E
:10216000B3F5800F01D10123FB617B681B6C002B51
:1021700001D10123BB617B681B6803F08073002BD6
:1021800001D00123FB617B681B6803F02003002B57
:1021900000F08B803A4A3A4B1B6C43F08053136437
:1021A000374B1B6C03F08053BB60BB68354A354B23
:1021B0001B6843F480731360FEF76CFA786108E0E3
:1021C000FEF768FA02467B69D31A642B01D9032310
:1021D0008DE32C4B1B6803F48073002BF0D0284B4D
:1021E0001B6F03F440733B613B69002B35D07B6868
:1021F0001B6B03F440723B699A422ED0204B1B6F3D
:1022000023F440733B611E4A1D4B1B6F43F4803324
:1022100013671B4A1A4B1B6F23F480331367184A4A
:102220003B691367164B1B6F03F00103012B14D19D
:10223000FEF730FA78610AE0FEF72CFA02467B6975
:10224000D31A41F28832934201D903234FE30C4B56
:102250001B6F03F00203002BEED07B681B6B03F4B3
:102260004073B3F5407F11D10548054B9B6823F4BB
:10227000F8127B68196B044B0B40134383600BE02F
:102280000038024000700040FFFCFF0FB24AB24B22
:102290009B6823F4F8139360AF49AF4B1A6F7B68C8
:1022A0001B6BC3F30B0313430B677B681B6803F0C3
:1022B0001003002B10D0A84AA74BD3F88C3023F082
:1022C0008073C2F88C30A449A34BD3F88C207B6870
:1022D0009B6B1343C1F88C307B681B6803F480430D
:1022E000002B0AD09C499C4BD3F8903023F4403209
:1022F0007B685B6E1343C1F890307B681B6803F406
:102300000043002B0AD09449934BD3F8903023F428
:1023100040227B689B6E1343C1F890307B681B683A
:1023200003F48033002B0AD08B498B4BD3F89030C9
:1023300023F440127B68DB6E1343C1F890307B6856
:102340001B6803F40033002B0AD08349824BD3F877
:10235000903023F440027B681B6F1343C1F8903028
:102360007B681B6803F04003002B0AD07A497A4B44
:10237000D3F8903023F003027B685B6C1343C1F801
:1023800090307B681B6803F08003002B0AD07249F1
:10239000714BD3F8903023F00C027B689B6C134395
:1023A000C1F890307B681B6803F48073002B0AD05F
:1023B0006949694BD3F8903023F030027B68DB6CBD
:1023C0001343C1F890307B681B6803F40073002B43
:1023D0000AD06149604BD3F8903023F0C0027B688B
:1023E0001B6D1343C1F890307B681B6803F4806356
:1023F000002B0AD05849584BD3F8903023F4407240
:102400007B685B6D1343C1F890307B681B6803F4F5
:102410000063002B0AD050494F4BD3F8903023F47F
:1024200040627B689B6D1343C1F890307B681B68EA
:1024300003F48053002B0AD04749474BD3F8903020
:1024400023F440527B68DB6D1343C1F890307B6806
:102450001B6803F40053002B0AD03F493E4BD3F8CE
:10246000903023F440427B681B6E1343C1F89030D8
:102470007B681B6803F48003002B0AD03649364B77
:10248000D3F8903023F080627B689B6F1343C1F8D0
:1024900090307B681B6803F40013002B11D02E4989
:1024A0002D4BD3F8903023F000627B68DB6F134331
:1024B000C1F890307B68DB6FB3F1006F01D101236D
:1024C000BB617B681B6803F00803002B01D001236C
:1024D000BB617B681B6803F48023002B0AD01E4974
:1024E0001D4BD3F8903023F040727B685B6F134331
:1024F000C1F890307B681B6803F40003002B0BD0FD
:102500001549154BD3F8903023F080527B68D3F8EF
:1025100080301343C1F890307B681B6803F0806300
:10252000002B0BD00C490C4BD3F8903023F0005209
:102530007B68D3F884301343C1F890307B681B6804
:1025400003F00063002B0ED00349034BD3F88C300B
:1025500023F000727B6801E000380240D3F8883035
:102560001343C1F88C307B681B6803F08053002B49
:102570000BD08149804BD3F88C3023F080627B688C
:10258000D3F88C301343C1F88C30FB69012B05D094
:102590007B681B68B3F1007F40F0D680764A764BAB
:1025A0001B6823F080631360FEF774F8786108E01D
:1025B000FEF770F802467B69D31A642B01D9032316
:1025C00095E16D4B1B6803F00063002BF0D17B6835
:1025D0001B6803F00103002B21D07B685B6B002B91
:1025E0001DD1654BD3F884301B0C03F003033B6112
:1025F000614BD3F884301B0E03F00F03FB605E4980
:102600007B685B689A013B691B041A43FB681B06E5
:102610001A437B689B681B071343C1F884307B68AF
:102620001B6803F40023002B04D07B68DB6BB3F53D
:10263000801F0AD07B681B6803F48013002B2ED008
:102640007B681B6CB3F5800F29D14B4BD3F88430DA
:102650001B0C03F003033B61474BD3F884301B0F83
:1026600003F00703FB6044497B685B689A013B69A0
:102670001B041A437B68DB681B061A43FB681B07B5
:102680001343C1F884303C493B4BD3F88C3023F0E2
:102690001F027B685B6A013B1343C1F88C307B6887
:1026A0001B6803F08073002B1DD0334BD3F88430AC
:1026B0001B0E03F00F033B612F4BD3F884301B0F2D
:1026C00003F00703FB602C497B685B689A017B6819
:1026D0001B691B041A433B691B061A43FB681B0753
:1026E0001343C1F884307B681B6803F00073002B30
:1026F00011D021497B685B689A017B681B691B04C8
:102700001A437B68DB681B061A437B689B681B07C0
:102710001343C1F88430184A174B1B6843F0806399
:102720001360FDF7B7FF786108E0FDF7B3FF0246DD
:102730007B69D31A642B01D90323D8E00E4B1B68A5
:1027400003F00063002BF0D0BB69012B40F0CE807A
:10275000094A094B1B6823F080531360FDF79AFF69
:1027600078610BE0FDF796FF02467B69D31A642B74
:1027700004D90323BBE000BF003802405E4B1B6856
:1027800003F00053B3F1005FECD07B681B6803F4E7
:102790000023002B03D07B68DB6B002B09D07B6808
:1027A0001B6803F48013002B2ED07B681B6C002B5E
:1027B0002AD1514BD3F888301B0C03F003033B6143
:1027C0004D4BD3F888301B0F03F00703FB604A49D9
:1027D0007B685B699A013B691B041A437B689B69B0
:1027E0001B061A43FB681B071343C1F88830424994
:1027F000414BD3F88C3023F4F8527B689B6A013B41
:102800001B021343C1F88C307B681B6803F4001370
:10281000002B22D07B68DB6FB3F1006F1DD1364BEC
:10282000D3F888301B0E03F00F033B61324BD3F813
:1028300088301B0F03F00703FB602F497B685B693F
:102840009A017B681B6A1B041A433B691B061A43E7
:10285000FB681B071343C1F888307B681B6803F0D3
:102860000803002B28D0244BD3F888301B0E03F02C
:102870000F033B61204BD3F888301B0C03F003039C
:10288000FB601D497B685B699A01FB681B041A4366
:102890003B691B061A437B68DB691B071343C1F8BE
:1028A00088301549144BD3F88C3023F440327B68C0
:1028B000DB6A1343C1F88C300F4A0F4B1B6843F09F
:1028C00080531360FDF7E6FE786108E0FDF7E2FE55
:1028D00002467B69D31A642B01D9032307E0064B18
:1028E0001B6803F00053B3F1005FEFD100231846DB
:1028F0002037BD4680BD00BF0038024080B582B0A1
:1029000000AF78607B68002B01D101236BE07B680E
:102910005B7FDBB2002B05D17B6800221A777868D9
:1029200003F09AFD7B6802225A777B681B68CA22F3
:102930005A627B681B6853225A62786800F096FAE4
:102940000346002B08D07B681B68FF225A627B6815
:1029500004225A77012346E07B681A687B681B686B
:102960009968234B0B4093607B681B687A681268F8
:1029700091687A6850687A68126910437A68526977
:1029800002430A439A607B681B687A68D2681A61BE
:102990007B681B687A68126811697A689268120409
:1029A0000A431A617B681B687A681268D26822F051
:1029B0008002DA607B681B687A681268D26C22F049
:1029C0000802DA647B681B687A681268D16C7A68DE
:1029D00092690A43DA647B681B68FF225A627B684B
:1029E00001225A77002318460837BD4680BD00BF34
:1029F000BFFF8FFF90B587B000AFF860B9607A6015
:102A000000237B61FB681B7F012B01D10223A8E01F
:102A1000FB6801221A77FB6802225A777B68002B39
:102A200026D1FB681B689B6803F04003002B02D192
:102A3000BB6800221A73BB681B78184600F042FA84
:102A400003461C04BB685B78184600F03BFA03465B
:102A50001B021C43BB689B78184600F033FA034600
:102A600044EA0302BB681B7B1B0413437B6118E031
:102A7000FB681B689B6803F04003002B02D1BB6816
:102A800000221A73BB681B781A04BB685B781B02B0
:102A90001343BA6892781A43BB681B7B1B04134329
:102AA0007B61FB681B68CA225A62FB681B68532261
:102AB0005A62F86800F0DAF90346002B0BD0FB6885
:102AC0001B68FF225A62FB6804225A77FB680022C7
:102AD0001A77012345E0FB681A687969234B0B409C
:102AE0001360FB681B68FA681268926822F48022FF
:102AF0009A60FB681B68FA6812689168BA68106986
:102B0000BA68526902430A439A60FB681B68FA6814
:102B10001268D26822F08002DA60FB681B689B684A
:102B200003F02003002B11D1F86800F077F9034679
:102B3000002B0BD0FB681B68FF225A62FB68042243
:102B40005A77FB6800221A7701230AE0FB681B68AA
:102B5000FF225A62FB6801225A77FB6800221A772B
:102B6000002318461C37BD4690BD00BF7F7F7F0005
:102B700080B586B000AFF860B9607A6000237B61F1
:102B8000FB681B689A6ABB685A60FB681B681B6914
:102B9000C3F30E02BB689A60FB681B681A68224B7D
:102BA00013407B617B691B0CDBB203F03F03DAB29D
:102BB000BB681A707B691B0ADBB203F07F03DAB2D1
:102BC000BB685A707B69DBB203F07F03DAB2BB6883
:102BD0009A707B691B0CDBB203F04003DAB2BB686E
:102BE0001A737B68002B1AD1BB681B78184600F05B
:102BF00087F903461A46BB681A70BB685B781846AB
:102C000000F07EF903461A46BB685A70BB689B7891
:102C1000184600F075F903461A46BB689A700023FF
:102C200018461837BD4680BD7F7F7F0090B587B0BE
:102C300000AFF860B9607A6000237B61FB681B7F9E
:102C4000012B01D1022392E0FB6801221A77FB6875
:102C500002225A777B68002B0ED1BB685B7803F0A9
:102C60001003002B08D0BB685B7823F01003DBB2A5
:102C70000A33DAB2BB685A707B68002B1CD1BB6880
:102C8000DB78184600F01EF903461C04BB685B782D
:102C9000184600F017F903461B021C43BB689B78DB
:102CA000184600F00FF9034644EA0302BB681B789C
:102CB0005B0313437B610EE0BB68DB781A04BB68DF
:102CC0005B781B021343BA6892781A43BB681B787F
:102CD0005B0313437B61FB681B68CA225A62FB6873
:102CE0001B6853225A62F86800F0C0F80346002BB4
:102CF0000BD0FB681B68FF225A62FB6804225A77DC
:102D0000FB6800221A77012331E0FB681A687969B1
:102D1000194B0B405360FB681B68FA681268D26855
:102D200022F08002DA60FB681B689B6803F02003D6
:102D3000002B11D1F86800F071F80346002B0BD07E
:102D4000FB681B68FF225A62FB6804225A77FB6803
:102D500000221A7701230AE0FB681B68FF225A62EF
:102D6000FB6801225A77FB6800221A770023184675
:102D70001C37BD4690BD00BF3FFFFF0080B586B049
:102D800000AFF860B9607A6000237B61FB681B6864
:102D90005A68214B13407B617B691B0CDAB2BB681C
:102DA000DA707B691B0ADBB203F01F03DAB2BB687F
:102DB0005A707B69DBB203F03F03DAB2BB689A70EA
:102DC0007B695B0BDBB203F00703DAB2BB681A70F6
:102DD0007B68002B1AD1BB68DB78184600F090F8AE
:102DE00003461A46BB68DA70BB685B78184600F089
:102DF00087F803461A46BB685A70BB689B7818462A
:102E000000F07EF803461A46BB689A700023184605
:102E10001837BD4680BD00BF3FFFFF0080B584B0BE
:102E200000AF78600023FB607B681B687A681268DB
:102E3000D26822F0A002DA60FDF72CFCF86009E00D
:102E4000FDF728FC0246FB68D31AB3F57A7F01D957
:102E5000032307E07B681B68DB6803F02003002B7B
:102E6000EED0002318461037BD4680BD80B584B033
:102E700000AF78600023FB607B681B68DB6803F0B1
:102E80004003002B19D17B681B684FF0FF32DA60DA
:102E9000FDF700FCF86009E0FDF7FCFB0246FB686B
:102EA000D31AB3F57A7F01D9032307E07B681B6847
:102EB000DB6803F04003002BEED0002318461037E8
:102EC000BD4680BD80B485B000AF0346FB710023D2
:102ED000FB6005E0FB680133FB60FB790A3BFB719B
:102EE000FB79092BF6D8FB68DBB21B01DAB2FB7960
:102EF0001343DBB218461437BD465DF8047B7047B8
:102F000080B485B000AF0346FB710023FB60FB7902
:102F10001B09DBB21A4613469B0013445B00FB609F
:102F2000FB7903F00F03DAB2FB68DBB21344DBB2C8
:102F300018461437BD465DF8047B704780B487B0EF
:102F400000AFF860B9607A6000237B61FB681B68A2
:102F500050337B61BB689B007A6913447B617B695A
:102F60007A681A6000BF1C37BD465DF8047B704765
:102F700080B485B000AF786039600023FB607B6867
:102F80001B685033FB603B689B00FA681344FB608E
:102F9000FB681B6818461437BD465DF8047B704714
:102FA00080B582B000AF78607B68002B01D101232F
:102FB0001DE07B6893F83430DBB2002B05D17B68D1
:102FC00000221A77786803F065FB7B68032283F898
:102FD0003420786800F00FF87B6800229A637B68E1
:102FE00000221A637B68012283F8342000231846EC
:102FF0000837BD4680BDB0B58EB004AF7860002301
:103000007B620023FB6000233B6100237B61002384
:10301000BB610023FB6176233B627B681D686C46C5
:1030200007F1180393E8070084E8070007F10C0391
:103030000ECB284602F0A6F97B681B687A681268F6
:10304000526822F480725A607B681B68184602F04E
:10305000E3F97B681B687A681268526842F48072F0
:103060005A600220FDF722FB786801F044F878628C
:103070007B6A002B0BD07B68012283F834207B68AD
:103080009A6B7B6A1A437B689A63012313E0786822
:1030900000F068FF78627B6A002B0BD07B6801220E
:1030A00083F834207B689A6B7B6A1A437B689A6347
:1030B000012300E0002318462837BD46B0BD90B577
:1030C0008FB000AFF860B9607A603B6000237B632B
:1030D000FDF7E0FAB86200233B63BB68FB62BB68A4
:1030E000002B07D1FB689B6B43F00062FB689A637F
:1030F000012376E1FB6893F83430DBB2012B40F01A
:103100006981FB6800229A637A683B681A44FB680D
:10311000DB6D9A4207D9FB689B6B43F00072FB683A
:103120009A6301235DE1FB68032283F83420FB6886
:103130001B680022DA62FB685B6C012B02D07B68A3
:103140005B027B60FB681B684FF40071184602F05D
:10315000F7F978637B6B002B10D0FB681B6840F29B
:10316000FF529A63FB689A6B7B6B1A43FB689A6306
:10317000FB68012283F83420012332E14FF0FF3352
:103180003B613B685B027B619023BB610223FB6177
:1031900000233B6201237B62FB681B6807F110027E
:1031A0001146184602F0A0F93B68012B0AD9FB68CA
:1031B00002221A63FB681B687968184602F008FA55
:1031C000786309E0FB6801221A63FB681B68796871
:1031D000184602F0D9F978637B6B002B4AD0FB6864
:1031E0001B6840F2FF529A63FB689A6B7B6B1A4331
:1031F000FB689A63FB68012283F834200123F0E026
:10320000FB681B685B6B03F40043002B16D00023A4
:103210003B630DE03B6B9B00FA6AD418FB681B68AC
:10322000184602F0DBF8034623603B6B01333B6337
:103230003B6B072BEED9FB6A2033FB62BB6C002B88
:1032400007D0FDF727FA0246BB6AD21ABB6C9A4236
:1032500010D3FB681B6840F2FF529A63FB689B6BBC
:1032600043F00042FB689A63FB68012283F8342034
:103270000323B6E0FB681B685B6B03F49573002BBC
:10328000BED0FB681B685B6B03F48073002B20D0FF
:103290003B68012B1DD9FB685B6C032B19D0FB68C5
:1032A0001B68184602F000FA78637B6B002B10D085
:1032B000FB681B6840F2FF529A63FB689A6B7B6B5A
:1032C0001A43FB689A63FB68012283F834200123C8
:1032D00087E0FB681B685B6B03F00803002B10D0D2
:1032E000FB681B6840F2FF529A63FB689B6B43F0DC
:1032F0000802FB689A63FB68012283F834200123EB
:103300006FE0FB681B685B6B03F00203002B10D0BF
:10331000FB681B6840F2FF529A63FB689B6B43F0AB
:103320000202FB689A63FB68012283F834200123C0
:1033300057E0FB681B685B6B03F02003002B37D062
:10334000FB681B6840F2FF529A63FB689B6B43F07B
:103350002002FB689A63FB68012283F83420012372
:103360003FE0FB681B68184602F038F80246FB6A2B
:103370001A60FB6A0433FB62BB6C002B07D0FDF7BD
:1033800089F90246BB6AD21ABB6C9A4210D3FB6819
:103390001B6840F2FF529A63FB689B6B43F000424C
:1033A000FB689A63FB68012283F83420012318E04C
:1033B000FB681B685B6B03F40013002BD1D1FB6827
:1033C0001B6840F2FF529A63FB68012283F83420A5
:1033D000002306E0FB689B6B43F00052FB689A6396
:1033E000012318463C37BD4690BD80B58EB000AF76
:1033F000F860B9607A603B6000237B63FDF74AF9AF
:10340000B86200233B63BB68FB62BB68002B07D13B
:10341000FB689B6B43F00062FB689A63012347E102
:10342000FB6893F83430DBB2012B40F03A81FB6843
:1034300000229A637A683B681A44FB68DB6D9A4203
:1034400007D9FB689B6B43F00072FB689A6301230A
:103450002EE1FB68032283F83420FB681B680022FE
:10346000DA62FB685B6C012B02D07B685B027B60DD
:10347000FB681B684FF40071184602F061F878632E
:103480007B6B002B10D0FB681B6840F2FF529A63E5
:10349000FB689A6B7B6B1A43FB689A63FB6801229B
:1034A00083F83420012303E13B68012B0AD9FB6830
:1034B00020221A63FB681B687968184602F0D0F86E
:1034C000786309E0FB6810221A63FB681B6879685F
:1034D000184602F0A1F878637B6B002B10D0FB68D4
:1034E0001B6840F2FF529A63FB689A6B7B6B1A432E
:1034F000FB689A63FB68012283F834200123D7E03C
:103500004FF0FF333B613B685B027B619023BB6103
:103510000023FB6100233B6201237B62FB681B6885
:1035200007F110021146184601F0DEFF37E0FB6894
:103530001B685B6B03F48043002B14D000233B63B8
:103540000BE0FB6818683B6B9B00FA6A1344194652
:1035500001F051FF3B6B01333B633B6B072BF0D911
:10356000FB6A2033FB623B6C002B07D0FDF792F81F
:103570000246BB6AD21A3B6C9A4210D3FB681B68A6
:1035800040F2FF529A63FB689A6B7B6B1A43FB68AD
:103590009A63FB68012283F83420032388E0FB68E8
:1035A0001B685B6B03F48D73002BC0D0FB681B683A
:1035B0005B6B03F48073002B20D03B68012B1DD97B
:1035C000FB685B6C032B19D0FB681B68184602F084
:1035D0006BF878637B6B002B10D0FB681B6840F2A4
:1035E000FF529A63FB689A6B7B6B1A43FB689A6382
:1035F000FB68012283F83420012359E0FB681B6833
:103600005B6B03F00803002B10D0FB681B6840F2D3
:10361000FF529A63FB689B6B43F00802FB689A6356
:10362000FB68012283F83420012341E0FB681B681A
:103630005B6B03F00203002B10D0FB681B6840F2A9
:10364000FF529A63FB689B6B43F00202FB689A632C
:10365000FB68012283F83420012329E0FB681B6802
:103660005B6B03F01003002B10D0FB681B6840F26B
:10367000FF529A63FB689B6B43F01002FB689A63EE
:10368000FB68012283F83420012311E0FB681B68EA
:1036900040F2FF529A63FB68012283F83420002332
:1036A00006E0FB689B6B43F00052FB689A630123C2
:1036B00018463837BD4680BD80B584B000AF78600D
:1036C0000023FB607B681B685B6B03F48073002B3B
:1036D00000F08B807B681B684FF480729A637B6874
:1036E0001B687A681268D26B22F49D72DA637B6879
:1036F0001B6B03F00803002B3AD07B681B6B03F0B5
:103700000203002B05D17B681B6B03F02003002B09
:1037100011D07B681B68184601F0C6FFF860FB6893
:10372000002B08D07B689A6BFB681A437B689A630E
:10373000786800F015F97B681B6840F2FF529A63C5
:103740007B68012283F834207B681B6B03F0010344
:10375000002B05D17B681B6B03F00203002B03D009
:10376000786802F00BFCF3E0786802F0FDFBEFE014
:103770007B681B6B03F08003002B00F0E9807B6803
:103780001B6B03F02003002B11D07B681B681846CD
:1037900001F08AFFF860FB68002B08D07B689A6B09
:1037A000FB681A437B689A63786800F0D9F87B68F5
:1037B0001B6B03F00103002B40F0CA807B681B6B7E
:1037C00003F00203002B40F0C3807B681B687A681B
:1037D0001268D26A22F00802DA627B68012283F85A
:1037E0003420786802F0C0FBB2E07B681B685B6B3A
:1037F00003F48043002B08D07B681B684FF48042A1
:103800009A63786800F071FDA2E07B681B685B6BCF
:1038100003F40043002B08D07B681B684FF4004280
:103820009A63786800F039FD92E07B681B685B6BF7
:1038300003F03A03002B00F08B807B681B685B6B06
:1038400003F00203002B05D07B689B6B43F0020260
:103850007B689A637B681B685B6B03F00803002B33
:1038600005D07B689B6B43F008027B689A637B689A
:103870001B685B6B03F02003002B05D07B689B6B00
:1038800043F020027B689A637B681B685B6B03F0E4
:103890001003002B05D07B689B6B43F010027B6804
:1038A0009A637B681B6840F2FF529A637B681B68CF
:1038B0007A681268D26B22F49D72DA637B681B6BA4
:1038C00003F08003002B36D07B681B6C002B11D0DB
:1038D0007B681B6C204A1A657B681B6C1846FDF7D9
:1038E00014FC0346002B33D07B681B6C184600F099
:1038F000BDFA2DE07B68DB6B002B11D07B68DB6BA6
:10390000164A1A657B68DB6B1846FDF7FEFB03461B
:10391000002B1DD07B68DB6B184600F0E5FA17E042
:103920007B6800229A637B68012283F834207868E0
:1039300002F010FB0CE07B681B6B03F00803002B0C
:1039400006D07B68012283F83420786800F008F8FC
:1039500000BF1037BD4680BD6D3E0008E93E00083F
:1039600080B483B000AF786000BF0C37BD465DF80F
:10397000047B704790B484B000AF78603960002356
:10398000FB607B685B6E1B0EFB60FB689B09DBB218
:1039900003F00303DAB23B681A70FB689B08DBB2E2
:1039A00003F00F03DAB23B685A70FB68DBB203F036
:1039B0000303DAB23B689A707B685B6E1B0CDBB268
:1039C000FB60FB68DAB23B68DA707B685B6E1B0AEF
:1039D000DBB2FB60FB68DAB23B681A717B685B6E36
:1039E000DBB2FB60FB68DAB23B685A717B689B6EA6
:1039F0001B0EFB60FB689BB21B019AB23B68DA802E
:103A00007B689B6E1B0CDBB2FB603B68DB889AB269
:103A1000FB681B099BB203F00F039BB213439AB2DE
:103A20003B68DA80FB68DBB203F00F03DAB23B6875
:103A30001A727B689B6E1B0ADBB2FB60FB68DB09BA
:103A4000DBB203F00103DAB23B685A72FB689B09F0
:103A5000DBB203F00103DAB23B689A72FB685B09E0
:103A6000DBB203F00103DAB23B68DA72FB681B09D0
:103A7000DBB203F00103DAB23B681A733B68002241
:103A80005A737B685B6C002B40F08680FB689B025E
:103A900003F440623B681A617B689B6EDBB2FB609B
:103AA0003B681A69FB689B001A433B681A617B6894
:103AB000DB6E1B0EDBB2FB603B681A69FB689B097F
:103AC00003F003031A433B681A61FB68DB08DBB2AF
:103AD00003F00703DAB23B681A75FB68DBB203F048
:103AE0000703DAB23B685A757B68DB6E1B0CDBB2EE
:103AF000FB60FB685B09DBB203F00703DAB23B68EB
:103B00009A75FB689B08DBB203F00703DAB23B68E7
:103B1000DA75FB68DBB25B00DBB203F00603DAB2F6
:103B20003B681A767B68DB6E1B0ADBB2FB603B6886
:103B30001B7EDAB2FB68DB09DBB203F00103DBB208
:103B40001343DAB23B681A763B681B695A1C7B68E0
:103B50005A653B681B7EDBB2023301229A407B68C8
:103B60005B6D02FB03F27B685A653B681B7ADBB234
:103B70001A46012393401A467B689A657B685B6D01
:103B80007A68926D520A02FB03F27B68DA657B6801
:103B90004FF400721A6651E07B685B6C012B3CD1DC
:103BA0007B689B6EDBB2FB60FB681B0403F47C123A
:103BB0003B681A617B68DB6E1B0EDBB2FB603B6807
:103BC0001A69FB681B021A433B681A617B68DB6E4B
:103BD0001B0CDBB2FB603B681A69FB681A433B684D
:103BE0001A617B68DB6E1B0ADBB2FB603B681B69FA
:103BF0004FF00004013344F100049A027B685A65D7
:103C00007B685A6D7B68DA657B684FF400729A6551
:103C10007B689A6D7B681A6610E07B681B6840F2CF
:103C2000FF529A637B689B6B43F080527B689A6378
:103C30007B68012283F834200123C1E0FB689B09E3
:103C4000DBB203F00103DAB23B685A76FB68DBB201
:103C50005B00DBB203F07E03DAB23B689A767B68E6
:103C6000DB6EDBB2FB603B689B7EDAB2FB68DB0994
:103C7000DBB203F00103DBB21343DAB23B689A769E
:103C8000FB68DBB203F07F03DAB23B68DA767B686D
:103C90001B6F1B0EDBB2FB60FB68DB09DBB203F0C2
:103CA0000103DAB23B681A77FB685B09DBB203F009
:103CB0000303DAB23B685A77FB689B08DBB203F078
:103CC0000703DAB23B689A77FB68DBB29B00DBB292
:103CD00003F00C03DAB23B68DA777B681B6F1B0CCE
:103CE000DBB2FB603B68DB7FDAB2FB689B09DBB2CF
:103CF00003F00303DBB21343DAB23B68DA77FB6805
:103D00005B09DBB203F00103DAB23B6883F82020E1
:103D10003B68002283F82120FB68DBB203F001033B
:103D2000DAB23B6883F822207B681B6F1B0ADBB288
:103D3000FB60FB68DB09DBB203F00103DAB23B682E
:103D400083F82320FB689B09DBB203F00103DAB29E
:103D50003B6883F82420FB685B09DBB203F00103B6
:103D6000DAB23B6883F82520FB681B09DBB203F05D
:103D70000103DAB23B6883F82620FB689B08DBB2BC
:103D800003F00303DAB23B6883F82720FB68DBB259
:103D900003F00303DAB23B6883F828207B681B6FCB
:103DA000DBB2FB60FB685B08DBB203F07F03DAB2D7
:103DB0003B6883F829203B68012283F82A200023EE
:103DC00018461037BD4690BC704780B483B000AF32
:103DD000786039607B685A6C3B681A607B689A6CC3
:103DE0003B685A607B68DA6C3B689A607B681A6D46
:103DF0003B68DA607B685A6D3B681A617B689A6D34
:103E00003B685A617B68DA6D3B689A617B681A6E21
:103E10003B68DA61002318460C37BD465DF8047B29
:103E2000704780B586B000AF78600423FB7500232F
:103E30003B610023FB6007F10C031946786800F032
:103E400002FA38613B69002B05D07B689A6B3B69AD
:103E50001A437B689A63FB685B0ADBB203F00F03CB
:103E6000FB75FB7D18461837BD4680BD80B584B014
:103E700000AF78607B689B6BFB60FB681B6C002B62
:103E800002D0FB6800221A64FB68DB6B002B27D191
:103E9000F868FFF7C6FF0346FB72FB6800229A63CF
:103EA000FB68012283F83420FB7A062B02D0FB7AD0
:103EB000052B15D1FB681B68184601F0F5FB02467F
:103EC000FB689B6B1A43FB689A63FB689B6B002B38
:103ED00003D0F86802F03EF802E0F868FFF740FD12
:103EE00000BF1037BD4680BD80B584B000AF78609C
:103EF0007B689B6BFB60FB68DB6B002B02D0FB6875
:103F00000022DA63FB681B6C002B27D1F868FFF7EF
:103F100088FF0346FB72FB6800229A63FB6801225C
:103F200083F83420FB7A062B02D0FB7A052B15D1BF
:103F3000FB681B68184601F0B7FB0246FB689B6BE9
:103F40001A43FB689A63FB689B6B002B03D0F868ED
:103F500002F000F802E0F868FFF702FD00BF10373A
:103F6000BD4680BDB0B594B004AF78600023FB635C
:103F70000123FB817B681B68184601F05BFA03464E
:103F8000002B02D14FF08063B1E07B685B6C032BA8
:103F90002FD07B681B68184601F05AFCF863FB6B56
:103FA000002B01D0FB6BA2E07B681B680021184648
:103FB00001F085FA02467B685A677B681B6804211A
:103FC000184601F07CFA02467B689A677B681B689A
:103FD0000821184601F073FA02467B68DA677B68AD
:103FE0001B680C21184601F06AFA02467B68C3F888
:103FF00080207B685B6C032B0DD07B681B6807F10E
:104000000E021146184601F064FCF863FB6B002BAE
:1040100001D0FB6B6BE07B685B6C032B36D0FB89BC
:104020001A467B681A657B681A687B681B6D1B04DF
:104030001946104601F02CFCF863FB6B002B01D0F5
:10404000FB6B54E07B681B680021184601F037FACF
:1040500002467B685A667B681B680421184601F09B
:104060002EFA02467B689A667B681B680821184610
:1040700001F025FA02467B68DA667B681B680C2132
:10408000184601F01CFA02467B681A677B681B68B9
:104090000421184601F013FA03461A0D7B68DA640E
:1040A00007F1100319467868FFF764FC7B6819680C
:1040B0007B681B6D1B044FF000041A46234608461C
:1040C00001F016FBF863FB6B002B01D0FB6B0EE0DD
:1040D0007B681D687B686C4603F1100207CA84E8A0
:1040E000070004330ECB284601F04CF90023184694
:1040F0004037BD46B0BD80B586B000AF78600023C4
:10410000BB6000237B6100233B610023FB607B6875
:104110001B68184601F011FBF860FB68002B01D00A
:10412000FB688CE07B681B68184601F026FBF86092
:10413000FB68002B3DD07B6800229A6432E0BB68AC
:104140005A1CBA604FF6FF72934202D14FF080734F
:1041500075E07B681B680021184601F02FFBF860B2
:10416000FB68002B02D04FF0805368E07B681B682F
:104170000021184601F046FBF860FB68002B02D0D6
:104180004FF080535BE07B681B680021184601F00C
:1041900096F978617B69DB0F012B0CBF01230023AB
:1041A000DBB23B613B69002BC9D07B6800225A64BB
:1041B00044E07B6801229A6431E0BB685A1CBA6013
:1041C0004FF6FF72934202D14FF0807337E07B6865
:1041D0001B680021184601F0F1FAF860FB68002B1B
:1041E00001D0FB682BE07B681B684FF080411846CC
:1041F00001F008FBF860FB68002B01D0FB681EE0B3
:104200007B681B680021184601F059F978617B69C9
:10421000DB0F012B0CBF01230023DBB23B613B69A9
:10422000002BCAD07B6903F08043002B03D07B684E
:1042300001225A6402E07B6800225A640023184677
:104240001837BD4680BD80B584B000AF7860396056
:104250000023FB603B68002B02D14FF0006318E0A5
:104260007B681A687B681B6D1B041946104601F0B9
:1042700053FBF860FB68002B01D0FB6809E07B680A
:104280001B680021184601F01AF902463B681A60C3
:10429000002318461037BD4680BD90B585B000AFED
:1042A00078600023FB607B689B6ABB600023FB6037
:1042B0000DE0FB689B00BA68D4187B681B68184641
:1042C00001F08CF803462360FB680133FB60FB6858
:1042D000072BEED97B689B6A03F120027B689A6208
:1042E000002318461437BD4690BD80B584B000AF9A
:1042F00078600023FB607B681B6ABB600023FB6067
:104300000BE07B681868FB689B00BA681344194689
:1043100001F071F8FB680133FB60FB68072BF0D9F3
:104320007B681B6A03F120027B681A62002318462F
:104330001037BD4680BD80B582B000AF78607B6825
:10434000002B01D1012340E07B685B6F002B06D17D
:104350007B68002283F87020786802F0F7FA7B68A7
:1043600024225A677B681B687A681268126822F0F8
:1043700001021A60786800F0DDFA0346012B01D1D2
:10438000012322E07B685B6A002B02D0786800F092
:1043900075FD7B681B687A681268526822F4904247
:1043A0005A607B681B687A681268926822F02A0259
:1043B0009A607B681B687A681268126842F0010292
:1043C0001A60786800F0FCFD034618460837BD46C1
:1043D00080BD80B582B000AF78607B68002B01D1D2
:1043E000012327E07B6824225A677B681B687A6870
:1043F0001268126822F001021A607B681B680022B2
:104400001A607B681B6800225A607B681B68002268
:104410009A60786802F0DEFA7B680022DA677B68CF
:1044200000225A677B6800229A677B68002283F823
:104430007020002318460837BD4680BD80B485B083
:1044400000AFF860B9601346FB80FB685B6F202B00
:1044500044D1BB68002B02D0FB88002B01D1012383
:104460003DE0FB6893F87030012B01D1022336E068
:10447000FB68012283F87020FB68BA68DA64FB6885
:10448000FA88A3F85020FB68FA88A3F85220FB684A
:1044900000225A66FB680022DA67FB6821225A670D
:1044A000FB689B68B3F5805F07D1FB681B69002B35
:1044B00003D1FB680D4A5A6602E0FB680C4A5A6653
:1044C000FB68002283F87020FB681B68FA6812689A
:1044D000126842F080021A60002300E002231846AE
:1044E0001437BD465DF8047B704700BF8D5100084E
:1044F0001B51000880B485B000AFF860B960134666
:10450000FB80FB689B6F202B40F08A80BB68002BF0
:1045100002D0FB88002B01D1012382E0FB6893F8D5
:104520007030012B01D102237BE0FB68012283F86C
:104530007020FB68BA685A65FB68FA88A3F85820AF
:10454000FB68FA88A3F85A20FB6800221A66FB6809
:104550009B68B3F5805F0ED1FB681B69002B05D10A
:10456000FB6840F2FF12A3F85C202DE0FB68FF22FD
:10457000A3F85C2028E0FB689B68002B0DD1FB684A
:104580001B69002B04D1FB68FF22A3F85C201BE011
:10459000FB687F22A3F85C2016E0FB689B68B3F100
:1045A000805F0DD1FB681B69002B04D1FB687F2263
:1045B000A3F85C2008E0FB683F22A3F85C2003E03E
:1045C000FB680022A3F85C20FB680022DA67FB6826
:1045D00022229A67FB681B68FA681268926842F0A8
:1045E00001029A60FB689B68B3F5805F07D1FB68A6
:1045F0001B69002B03D1FB680D4A1A6602E0FB68B9
:104600000C4A1A66FB68002283F87020FB681B685E
:10461000FA681268126842F490721A60002300E08F
:10462000022318461437BD465DF8047B704700BF6F
:10463000DF5200083952000880B582B000AF7860C0
:104640007B681B687A681268126822F490721A609C
:104650007B681B687A681268926822F001029A608F
:104660007B681B689B6803F04003402B24D17B6868
:104670001B687A681268926822F040029A607B6830
:10468000DB6E002B18D07B68DB6E00221A657B681E
:10469000DB6E1846FCF7C9FC0346002B0CD07B6888
:1046A000DB6E1846FCF753FD0346202B04D17B68D4
:1046B0001022DA67032313E07B680022A3F85A2054
:1046C0007B681B680F221A627B681B687A68126815
:1046D000926942F008029A617B6820229A6700235F
:1046E00018460837BD4680BD80B588B000AF7860F9
:1046F0007B681B68DB69FB617B681B681B68BB61AF
:104700007B681B689B687B61FB6903F00F033B615F
:104710003B69002B13D1FB6903F02003002B0ED063
:10472000BB6903F02003002B09D07B681B6E002BB4
:1047300000F0EB807B681B6E78689847E5E03B698A
:10474000002B00F0C0807B6903F00103002B05D132
:10475000BB6903F49073002B00F0B580FB6903F094
:104760000103002B0ED0BB6903F48073002B09D02A
:104770007B681B6801221A627B68DB6F43F00102D1
:104780007B68DA67FB6903F00203002B0ED07B69BC
:1047900003F00103002B09D07B681B6802221A6218
:1047A0007B68DB6F43F004027B68DA67FB6903F028
:1047B0000403002B0ED07B6903F00103002B09D00A
:1047C0007B681B6804221A627B68DB6F43F002027D
:1047D0007B68DA67FB6903F00803002B13D0BB6921
:1047E00003F02003002B04D17B6903F00103002BAD
:1047F00009D07B681B6808221A627B68DB6F43F074
:1048000008027B68DA677B68DB6F002B7FD0FB696F
:1048100003F02003002B0CD0BB6903F02003002B16
:1048200007D07B681B6E002B03D07B681B6E7868FB
:1048300098477B68DB6FFB607B681B689B6803F0B5
:104840004003402B04D0FB6803F00803002B31D059
:10485000786800F02CFC7B681B689B6803F04003C1
:10486000402B23D17B681B687A681268926822F01B
:1048700040029A607B68DB6E002B13D07B68DB6E96
:10488000264A1A657B68DB6E1846FCF73EFC034639
:10489000002B16D07B68DB6E1B6D7A68D26E1046DB
:1048A00098470EE0786800F03BF80AE0786800F07E
:1048B00037F806E0786800F033F87B680022DA67A2
:1048C00025E000BF23E0FB6903F08003002B0DD03F
:1048D000BB6903F08003002B08D07B685B6E002B64
:1048E00017D07B685B6E7868984712E0FB6903F02D
:1048F0004003002B0ED0BB6903F04003002B09D00E
:10490000786800F080FC00BF04E000BF02E000BF58
:1049100000E000BF2037BD4680BD00BFEF5000085B
:1049200080B483B000AF786000BF0C37BD465DF83F
:10493000047B704780B588B000AF78600023BB610E
:104940000023FB757B689A687B681B691A437B6848
:104950005B691A437B68DB6913433B617B681A68B8
:104960007B681B681968B34B0B4039690B431360B4
:104970007B681B687A681268526822F440517A6832
:10498000D2680A435A607B689B693B617B681B6AFB
:104990003A6913433B617B681B687A6812689268C6
:1049A00022F430613A690A439A607B681B68A24A24
:1049B000934221D1A14BD3F8903003F00303032B92
:1049C00016D801A252F823F0D9490008E549000899
:1049D000DF490008EB4900080123FB7750E102237F
:1049E000FB774DE10423FB774AE10823FB7747E19E
:1049F0001023FB7700BF43E17B681B68904A93421A
:104A000034D18E4BD3F8903003F00C030C2B29D803
:104A100001A252F823F000BF4D4A0008654A000881
:104A2000654A0008654A0008594A0008654A0008B6
:104A3000654A0008654A0008534A0008654A0008AC
:104A4000654A0008654A00085F4A00080023FB77B2
:104A500016E10223FB7713E10423FB7710E108231F
:104A6000FB770DE11023FB7700BF09E17B681B6832
:104A7000744A934220D1714BD3F8903003F0300345
:104A8000102B0FD0102B02D8002B05D010E0202BBC
:104A900005D0302B09D00BE00023FB77F0E0022398
:104AA000FB77EDE00423FB77EAE00823FB77E7E000
:104AB0001023FB7700BFE3E07B681B68624A9342E8
:104AC00020D15E4BD3F8903003F0C003402B0FD0C1
:104AD000402B02D8002B05D010E0802B05D0C02B36
:104AE00009D00BE00023FB77CAE00223FB77C7E085
:104AF0000423FB77C4E00823FB77C1E01023FB7796
:104B000000BFBDE07B681B68504A934224D14B4BE9
:104B1000D3F8903003F44073B3F5807F12D0B3F52F
:104B2000807F02D8002B07D012E0B3F5007F06D0BB
:104B3000B3F5407F09D00BE00023FB77A0E0022310
:104B4000FB779DE00423FB779AE00823FB7797E04F
:104B50001023FB7700BF93E07B681B683C4A9342BD
:104B600024D1364BD3F8903003F44063B3F5806F13
:104B700012D0B3F5806F02D8002B07D012E0B3F546
:104B8000006F06D0B3F5406F09D00BE00123FB772F
:104B900076E00223FB7773E00423FB7770E00823C1
:104BA000FB776DE01023FB7700BF69E07B681B6833
:104BB000284A934224D1214BD3F8903003F4405338
:104BC000B3F5805F12D0B3F5805F02D8002B07D019
:104BD00012E0B3F5005F06D0B3F5405F09D00BE0FB
:104BE0000023FB774CE00223FB7749E00423FB77AB
:104BF00046E00823FB7743E01023FB7700BF3FE04C
:104C00007B681B68144A934238D10C4BD3F8903020
:104C100003F44043B3F5804F26D0B3F5804F02D85C
:104C2000002B1BD026E0B3F5004F1AD0B3F5404F50
:104C30001DD01FE0F369FFEF001001400038024073
:104C40000044004000480040004C0040005000403C
:104C50000014014000780040007C00400023FB77F6
:104C60000EE00223FB770BE00423FB7708E0082328
:104C7000FB7705E01023FB7700BF01E01023FB77F3
:104C80007B68DB69B3F5004F7DD1FB7F082B5AD8D9
:104C900001A252F823F000BFBD4C0008DB4C000815
:104CA000F94C0008474D0008114D0008474D000819
:104CB000474D0008474D00082F4D0008FDF7D0F97B
:104CC00003465A007B685B685B081A447B685B6834
:104CD000B2FBF3F39BB2BB6138E0FDF7D5F90346B5
:104CE0005A007B685B685B081A447B685B68B2FBB0
:104CF000F3F39BB2BB6129E07B685B685A085D4BAC
:104D000013447A685268B3FBF2F39BB2BB611DE0B7
:104D1000FDF7C4F803465A007B685B685B081A44D9
:104D20007B685B68B2FBF3F39BB2BB610EE07B6810
:104D30005B685B0803F580327B685B68B2FBF3F36A
:104D40009BB2BB6102E00123FB7500BFBB690F2B67
:104D500016D9BB69B3F5803F12D2BB699BB223F071
:104D60000F03FB81BB695B089BB203F007039AB298
:104D7000FB891343FB817B681B68FA89DA606EE06C
:104D80000123FB756BE0FB7F082B57D801A252F87B
:104D900023F000BFB94D0008D54D0008F14D0008C3
:104DA0003D4E0008094E00083D4E00083D4E0008EB
:104DB0003D4E0008254E0008FDF752F902467B687B
:104DC0005B685B081A447B685B68B2FBF3F39BB2D9
:104DD000BB6136E0FDF758F902467B685B685B080B
:104DE0001A447B685B68B2FBF3F39BB2BB6128E0BB
:104DF0007B685B685A08204B13447A685268B3FB9F
:104E0000F2F39BB2BB611CE0FDF748F802467B68F9
:104E10005B685B081A447B685B68B2FBF3F39BB288
:104E2000BB610EE07B685B685B0803F500427B6852
:104E30005B68B2FBF3F39BB2BB6102E00123FB753D
:104E400000BFBB690F2B08D9BB69B3F5803F04D203
:104E50007B681B68BA69DA6001E00123FB757B6837
:104E600000221A667B6800225A66FB7D18462037AE
:104E7000BD4680BD0048E8010024F40080B483B042
:104E800000AF78607B685B6A03F00103002B0AD0F7
:104E90007B681B687A681268526822F400317A686D
:104EA000926A0A435A607B685B6A03F00203002B34
:104EB0000AD07B681B687A681268526822F48031D5
:104EC0007A68D26A0A435A607B685B6A03F004031B
:104ED000002B0AD07B681B687A681268526822F43B
:104EE00080217A68126B0A435A607B685B6A03F020
:104EF0000803002B0AD07B681B687A681268526826
:104F000022F400417A68526B0A435A607B685B6AFC
:104F100003F01003002B0AD07B681B687A681268C4
:104F2000926822F480517A68926B0A439A607B6897
:104F30005B6A03F02003002B0AD07B681B687A6849
:104F40001268926822F400517A68D26B0A439A6020
:104F50007B685B6A03F04003002B1AD07B681B68F8
:104F60007A681268526822F480117A68126C0A43D7
:104F70005A607B681B6CB3F5801F0AD17B681B6885
:104F80007A681268526822F4C0017A68526C0A4347
:104F90005A607B685B6A03F08003002B0AD07B6851
:104FA0001B687A681268526822F400217A68926C51
:104FB0000A435A6000BF0C37BD465DF8047B70475A
:104FC00080B586B002AF78607B680022DA67FBF7B5
:104FD00061FBF8607B681B681B6803F00803082B03
:104FE0000ED16FF07E430093FB6800224FF4001156
:104FF000786800F014F80346002B01D003230AE080
:105000007B6820225A677B6820229A677B6800228F
:1050100083F87020002318461037BD4680BD80B548
:1050200084B000AFF860B9603B601346FB712AE0C2
:10503000BB69B3F1FF3F26D0FBF72CFB02463B6870
:10504000D21ABB699A4202D8BB69002B1BD1FB68FC
:105050001B68FA681268126822F4D0721A60FB6842
:105060001B68FA681268926822F001029A60FB6875
:1050700020225A67FB6820229A67FB68002283F887
:10508000702003230FE0FB681B68DA69BB681A40D5
:10509000BB689A420CBF01230023DBB21A46FB799E
:1050A0009A42C5D0002318461037BD4680BD80B453
:1050B00083B000AF78607B681B687A6812681268FA
:1050C00022F490721A607B681B687A681268926892
:1050D00022F001029A607B6820229A677B68002296
:1050E0001A6600BF0C37BD465DF8047B704780B57B
:1050F00084B000AF78607B689B6BFB60FB6800222C
:10510000A3F85A20FB680022A3F85220F868FFF7A2
:1051100007FC00BF1037BD4680BD80B483B000AF30
:1051200078607B685B6F212B2AD17B68B3F85230A3
:105130009BB2002B10D17B681B687A6812681268DA
:1051400022F080021A607B681B687A681268126815
:1051500042F040021A6013E07B681B687A68D26CE8
:1051600012789A627B68DB6C5A1C7B68DA647B6815
:10517000B3F852309BB2013B9AB27B68A3F852203D
:1051800000BF0C37BD465DF8047B704780B485B026
:1051900000AF78607B685B6F212B2ED17B68B3F802
:1051A00052309BB2002B10D17B681B687A68126862
:1051B000126822F080021A607B681B687A681268A5
:1051C000126842F040021A6017E07B68DB6CFB60FB
:1051D0007B681B68FA681288C2F308029A627B68CF
:1051E000DB6C9A1C7B68DA647B68B3F852309BB244
:1051F000013B9AB27B68A3F8522000BF1437BD462A
:105200005DF8047B704780B582B000AF78607B6842
:105210001B687A681268126822F040021A607B6884
:1052200020225A677B6800225A66786804F0CEFD17
:1052300000BF0837BD4680BD80B584B000AF786040
:105240007B68B3F85C30FB817B689B6F222B3AD183
:105250007B681B685B6ABB817B685B6DBA89D1B276
:10526000FA89D2B20A40D2B21A707B685B6D5A1CBE
:105270007B685A657B68B3F85A309BB2013B9AB29F
:105280007B68A3F85A207B68B3F85A309BB2002B96
:1052900021D17B681B687A681268126822F49072C8
:1052A0001A607B681B687A681268926822F00102B3
:1052B0009A607B6820229A677B6800221A66786869
:1052C00004F09EFD07E07B681B687A6812689269AB
:1052D00042F008029A6100BF1037BD4680BD80B51C
:1052E00084B000AF78607B68B3F85C30FB817B688A
:1052F0009B6F222B3AD17B681B685B6ABB817B6802
:105300005B6DBB60BA89FB8913409AB2BB681A8097
:105310007B685B6D9A1C7B685A657B68B3F85A3072
:105320009BB2013B9AB27B68A3F85A207B68B3F822
:105330005A309BB2002B21D17B681B687A681268B7
:10534000126822F490721A607B681B687A6812688F
:10535000926822F001029A607B6820229A677B683B
:1053600000221A66786804F04BFD07E07B681B6832
:105370007A681268926942F008029A6100BF103799
:10538000BD4680BD84B080B485B000AF786007F1C1
:105390001C0080E80E000023FB60FA693B6A1A4398
:1053A0007B6A1A43BB6A1A43FB6A1A433B6B13437B
:1053B000FA681343FB607B685A68074B1340FA682E
:1053C0001A437B685A60002318461437BD465DF8BF
:1053D000047B04B0704700BF0081FFFF80B483B03E
:1053E00000AF78607B68D3F8803018460C37BD4634
:1053F0005DF8047B704780B483B000AF786039609B
:105400003B681A687B68C3F88020002318460C3775
:10541000BD465DF8047B704780B483B000AF786010
:105420007B6803221A60002318460C37BD465DF8DE
:10543000047B704780B483B000AF78607B681B68E2
:1054400003F0030318460C37BD465DF8047B704734
:1054500080B485B000AF786039600023FB603B68A2
:105460001A687B689A603B685A683B689B681A4375
:105470003B68DB681A433B681B691343FA681343B4
:10548000FB607B68DA68064B1340FA681A437B6856
:10549000DA60002318461437BD465DF8047B704778
:1054A00000F0FFFF80B483B000AF78607B681B69B9
:1054B000DBB218460C37BD465DF8047B704780B4FC
:1054C00085B000AF786039600023FB607B681433DF
:1054D0001A463B681344FB60FB681B681846143788
:1054E000BD465DF8047B704780B485B000AF78603E
:1054F00039600023FB603B681A687B685A623B682E
:105500005A687B689A623B689A683B68DB681A4312
:105510003B681B691A433B685B691343FA68134392
:10552000FB607B68DB6A23F0F702FB681A437B6849
:10553000DA62002318461437BD465DF8047B7047D5
:1055400080B588B000AF786039600023FB613B68AC
:10555000BB601023FB6040233B6100237B614FF461
:105560008063BB6107F1080319467868FFF770FF95
:1055700041F288321021786800F01CFAF861FB696A
:1055800018462037BD4680BD80B588B000AF786032
:1055900039600023FB613B68BB601123FB60402343
:1055A0003B6100237B614FF48063BB6107F108031B
:1055B00019467868FFF74CFF41F28832112178686C
:1055C00000F0F8F9F861FB6918462037BD4680BD48
:1055D00080B588B000AF786039600023FB613B681C
:1055E000BB601223FB6040233B6100237B614FF4CF
:1055F0008063BB6107F1080319467868FFF728FF4D
:1056000041F288321221786800F0D4F9F861FB6920
:1056100018462037BD4680BD80B588B000AF7860A1
:1056200039600023FB613B68BB601823FB604023AB
:105630003B6100237B614FF48063BB6107F108038A
:1056400019467868FFF704FF41F28832182178681C
:1056500000F0B0F9F861FB6918462037BD4680BDFF
:1056600080B588B000AF786039600023FB613B688B
:10567000BB601923FB6040233B6100237B614FF437
:105680008063BB6107F1080319467868FFF7E0FE05
:1056900041F288321921786800F08CF9F861FB69D1
:1056A00018462037BD4680BD80B588B000AF786011
:1056B0000023FB610023BB600C23FB6040233B61A4
:1056C00000237B614FF48063BB6107F10803194637
:1056D0007868FFF7BDFE054A0C21786800F06AF98A
:1056E000F861FB6918462037BD4680BD00E1F5052D
:1056F00080B58AB000AFF860C7E9002300237B6261
:105700003B683B6107237B614023BB610023FB6156
:105710004FF480633B6207F110031946F868FFF706
:1057200097FE41F288320721F86800F043F9786269
:105730007B6A18462837BD4680BD80B588B000AF6B
:1057400078600023FB610023BB600023FB60002323
:105750003B6100237B614FF48063BB6107F1080369
:1057600019467868FFF774FE786800F0F9F8F86178
:10577000FB6918462037BD4680BD80B588B000AFB4
:1057800078600023FB614FF4D573BB600823FB6096
:1057900040233B6100237B614FF48063BB6107F1D1
:1057A000080319467868FFF753FE786800F0CAFAD4
:1057B000F861FB6918462037BD4680BD80B588B0CA
:1057C00000AF786039600023FB613B68BB60372322
:1057D000FB6040233B6100237B614FF48063BB612E
:1057E00007F1080319467868FFF732FE41F2883264
:1057F0003721786800F0DEF8F861FB691846203739
:10580000BD4680BD80B588B000AF786039600023A8
:10581000FB613A680D4B1343BB602923FB604023B7
:105820003B6100237B614FF48063BB6107F1080398
:1058300019467868FFF70CFE786800F0E1F9F86126
:10584000FB6918462037BD4680BD00BF00001080B0
:1058500080B588B000AF78600023FB610023BB6097
:105860000223FB60C0233B6100237B614FF4806314
:10587000BB6107F1080319467868FFF7E9FD78680E
:1058800000F07EF9F861FB6918462037BD4680BDFF
:1058900080B588B000AF786039600023FB613B6859
:1058A000BB600923FB60C0233B6100237B614FF495
:1058B0008063BB6107F1080319467868FFF7C8FDEC
:1058C000786800F05DF9F861FB6918462037BD463D
:1058D00080BD80B588B000AF786039600023FB617F
:1058E0000023BB600323FB6040233B6100237B61FB
:1058F0004FF48063BB6107F1080319467868FFF72E
:10590000A7FD3A680321786800F0AEF9F861FB69F9
:1059100018462037BD4680BD80B588B000AF78609E
:1059200039600023FB613B68BB600D23FB604023B3
:105930003B6100237B614FF48063BB6107F1080387
:1059400019467868FFF784FD41F288320D217868A6
:1059500000F030F8F861FB6918462037BD4680BD7D
:1059600090B482B000AF7860104B1B68104AA2FB65
:1059700003235B0A41F2883202FB03F423465C1ED8
:10598000002B02D14FF000430AE07B685B6B03F011
:105990008003002BF2D07B6840F2FF529A63002311
:1059A00018460837BD4690BC704700BF080000206D
:1059B000D34D621090B587B000AFF8600B467A60A7
:1059C000FB726C4B1B686C4AA2FB03235B0A7A6870
:1059D00002FB03F423465C1E002B02D14FF0004370
:1059E000C3E0FB685B6B03F04503002BF2D0FB6860
:1059F0005B6B03F00403002B04D0FB6804229A6362
:105A00000423B2E0FB685B6B03F00103002B04D0BE
:105A1000FB6801229A630123A7E0F868FFF742FDC3
:105A200003461A46FB7A934201D001239DE0FB68AE
:105A300040F2FF529A630021F868FFF740FD786159
:105A40007A694E4B1340002B01D100238DE07B6916
:105A5000002B02DA4FF0007387E07B6903F080438C
:105A6000002B01D0402380E07B6903F00053002B22
:105A700001D0802379E07B6903F08053002B02D0B2
:105A80004FF4807371E07B6903F00063002B02D058
:105A90004FF4007369E07B6903F08063002B02D050
:105AA0004FF4806361E07B6903F08073002B02D0C8
:105AB0004FF4006359E07B6903F40003002B02D02C
:105AC0004FF4805351E07B6903F48003002B02D034
:105AD0004FF4005349E07B6903F40013002B02D01C
